:020000040800F2
:100000000007002035020008592B00081D220008B7
:10001000552B0008191C0008BB3800080000000020
:10002000000000000000000000000000E1300008B7
:10003000C11D000800000000C92F00082933000876
:100040004F0200084F0200084F0200084F0200084C
:100050004F0200084F0200084F0200084F0200083C
:100060004F0200084F0200084F0200084F0200082C
:100070004F0200084F0200084F0200084F0200081C
:100080004F0200084F0200084F0200084F0200080C
:100090004F0200084F0200084F0200084F020008FC
:1000A0004F0200084F0200084F0200084F020008EC
:1000B0004F0200088D330008C13300084F020008CA
:1000C0004F0200084F0200084F0200084F020008CC
:1000D0004F020008A93600084F0200084F0200082E
:1000E0004F0200084F0200084F02000800F002F81B
:1000F00000F090F80AA090E8000C82448344AAF132
:100100000107DA4501D100F085F8AFF2090EBAE82F
:100110000F0013F0010F18BFFB1A43F0010318473B
:100120000C5B00002C5B0000103A24BF78C878C13B
:10013000FAD8520724BF30C830C144BF04680C60ED
:10014000704700000023002400250026103A28BF35
:1001500078C1FBD8520728BF30C148BF0B60704739
:100160006E2900F0BD81702900F0FF82662905F03C
:10017000EC80652905F0E980672905F0E6806129B2
:1001800005F0E58003681B0A28BF41F0800169295A
:1001900000F06A81642900F06781752900F06481AC
:1001A0006F2900F08D82782900F0CB82E92900F0D8
:1001B0002782E42900F02482F52900F02182EF292A
:1001C00000F08A82F82900F0CA820368DB0928BFA0
:1001D00041F08001632900F0CF87732900F0D487B4
:1001E000E32900F0DF87F32900F0E487002070475F
:1001F0001FB501F035F804000020002104F028F8B4
:10020000401C60600020002104F00CF8E0601FBD7D
:1002100010B510BD00F0F6FF1146FFF7E9FF03F03F
:10022000DBFE01F0CFF803B4FFF7F2FF03BC01F0EF
:100230000FF900000948804709480047FEE7FEE73C
:10024000FEE7FEE7FEE7FEE7FEE7FEE7FEE7FEE786
:1002500004480549054A064B704700002D33000845
:10026000ED0000080001002000070020000300202E
:100270000003002053EA020C00F069802DE9F04BE6
:100280004FF00006002B1FBFB3FA83F503FA05F405
:1002900024FA05F65E4012BF1643B2FA82F502FA5E
:1002A00005F4C5F120051EBF22FA05FC44EA0C0442
:1002B000203556EA044C4FEA144418BF641C4FF032
:1002C00000084FF00009904271EB030C39D300296C
:1002D00019BFB1FA81F701FA07F6B0FA80F700FA10
:1002E00007F6C7F120071EBF20FA07FC46EA0C06F6
:1002F0002037B6FBF4FCA7EB0507103F07F01F0BF8
:10030000CBF120060CFA0BFB2CFA06F644BFB346E1
:100310000026202FA4BF5E464FF0000B5BEA060CC0
:1003200008BF4FF0010B19EB0B09ABFB027C48EB4C
:100330000608C01B06FB02CC0BFB03CC71EB0C01C7
:10034000C1E70B46024641464846BDE8F08B13B56F
:100350004FF000004FF00001AFF30080BDE81C40FB
:10036000704700001CB50C46064B7B446946009064
:10037000204600F0CEF804460020694600F0DCF884
:1003800020461CBDCB01000070477047704710B578
:1003900000F0BAFA006810BD10B5044600F0B4FAD7
:1003A000046010BD70B5044685690068C10601D5BA
:1003B000302600E02026C00707D070BDD4E9012117
:1003C00030469047206A401C20626D1EF6D570BDF5
:1003D00070B5044685690078C00707D170BDD4E9BF
:1003E000012120209047206A401C20626D1EF6D516
:1003F00070BD09684A0501D540B27047C905FCD5F2
:1004000000B2704709684A0501D5C0B27047C905F6
:10041000FCD580B2704770B50C460546012A05D060
:100420002878800600D5EA69002302E0012305E070
:100430005B1C934202D2E05C0028F9D1A869E6185F
:10044000C01AA861286A184428622846FFF7AAFF44
:1004500004E0D5E9012114F8010B9047B442F8D328
:100460002846FFF7B5FF70BD2DE9F0410646002490
:1004700010687529314616A510D0FFF7BAFF00287D
:1004800002DA404213A507E031688A0701D512A5B8
:1004900002E0490704D511A5012401E0FFF7B2FFEE
:1004A00000210A2206F1240709E0B0FBF2FCB0FBB0
:1004B000F2F302FB1C00303078541846491C002827
:1004C000F3D123462A463046BDE8F04100F065BA34
:1004D000000000002D0000002B00000020000000A4
:1004E00011680268006A530501D508700AE0D30557
:1004F00001D5088006E0130603D5C217C1E9000242
:1005000000E008600120704701694A1C0261087818
:10051000704700B58FB0CDE9013100210591054943
:100520007944CDE903101146684600F029F90FB06F
:1005300000BD0000E5FFFFFF0A6802F8010B0A603A
:10054000704700002DE9FF5F15468A460446DFF834
:10055000AC80F8440027D8E900103E46CDE90010F1
:1005600010E03AF816106A4602A800F027FE411C77
:1005700007D02178890603D5E269391891420DD850
:100580000744761C2078800602D5E069B84205DD74
:10059000AE42E6DB3AF816000028E2D1A069C01BA3
:1005A000A0612046FFF7FEFED8E90010CDE900105B
:1005B000002017E03AF818106A4602A800F0FEFD85
:1005C000B0F1FF3F81460BD000250DF1080B05E08F
:1005D000D4E901211BF8050090476D1C4D45F7D368
:1005E00008F10100B0428046E4DB206A3844206212
:1005F0002046FFF7EDFEBDE8FF9F000032550000EA
:100600002DE9F0418046D21D22F007020025D2E9F3
:100610000002F52915A614D0011E72F1000106DAB8
:100620000023D0EB030063EB020211A608E0D8F828
:1006300000108B0701D50FA602E0490701D50EA6D1
:1006400001251146002408F1240704E000F060F9B8
:1006500030323A55641C50EA0102F7D12B4632463B
:1006600021464046BDE8F04100F097B90000000087
:100670002D0000002B0000002000000030B40021FD
:1006800000F1240408E002F00705D208303542EA00
:100690004372DB086554491C52EA0305F3D1046830
:1006A000002310A2250708D504F020040C4304D031
:1006B000C46901230CA2641EC46130BC00F06DB992
:1006C00010B5044621461068FFF79CFE02462046FE
:1006D000BDE810400023D1E7D21D22F00701D1E987
:1006E0000023CBE70000000030000000F0B40D460E
:1006F0000188090502D5214C7C4402E01F4C7C4452
:100700000E34002100F1240608E002F00F07120960
:10071000E75D42EA03721B097754491C52EA03075A
:10072000F3D102780023120704D5702D06D009B149
:10073000022311342246F0BC00F02FB901231034FB
:10074000F8E770B504460D4621461068FFF75AFEDB
:10075000024629462046BDE870400023C6E7D21D68
:1007600022F00703D3E90023C0E70368126843F0CF
:10077000200303600823C3610023B7E794530000FC
:100780002DE9F05F894604464FF0000ADFF874B1A6
:10079000FB44C0F820A02046E1688847002874D0B8
:1007A000252806D0D4E901219047206A401C206208
:1007B000F1E700265F462046E16888472028054685
:1007C00007DB312D05D2781910F8200C08B106434B
:1007D000F1E7B00701D526F00406C4F81CA00027F5
:1007E000C4F818A02A2D09D0284603F0E5F838B33C
:1007F00004EB8708303DC8F8185019E059F8041B7D
:10080000204604EB87029161E1688847012F054685
:1008100018D1E069002820DA26F020061DE0D8F87B
:10082000180000EB800005EB40003038C8F81800D5
:100830002046E1688847054603F0BEF80028EED15F
:10084000012F0AD02E2D08D12046E16888477F1C51
:100850000546022F46F02006C4DBA069002803DA13
:10086000404246F00106A061F00701D026F01006D4
:100870006C2D0BD0682D09D04C2D39D06A2D35D078
:10088000742D35D07A2D33D016E038E0E1682F464C
:1008900020468847B842054609D16C2F26D04FF430
:1008A0008060E168064320468847054604E06C2FD7
:1008B0001AD04FF4807006430DB3A5F141001928FA
:1008C00002D8203546F400664A462946204626606E
:1008D0004E46FFF745FC80B101280BD0F61D26F0EF
:1008E000070000F1080956E74020E4E78020D8E738
:1008F0000020D6E706F104094DE7284652E7206AB2
:10090000BDE8F09F2453000000487047A00000207D
:1009100030B5B0F10A024FEA900E71F100034EEAD1
:10092000817EB0EB0E0061EB91014FEA101E4EEAA2
:10093000017E10EB0E0041EB11114FEA102E4EEA32
:10094000016E10EB0E0041EB11214FEA104E4EEA02
:10095000014E10EB0E0041EB1141401841F1000136
:100960004FEAD00040EA41704FEAD10110EB800518
:100970004FEA810444EA907444EB01046D1944EB9E
:100980000404521BA3414FF0000348BF0A3200D5B4
:1009900030BD401C41F1000130BD2DE9F0470D464E
:1009A00099469246044600F124080168880604D559
:1009B000E06921F01001216000E00120A84201DD82
:1009C000471B00E00027A1697A1902EB0900081A09
:1009D000A0612078C00602D42046FFF7E3FC002681
:1009E00008E0D4E901211AF806009047206A401C6B
:1009F000761C20624E45F4DB2078C0060AD52046DE
:100A0000FFF7D0FC06E0D4E9012130209047206AAE
:100A1000401C2062381EA7F10107F4DC07E0D4E98E
:100A2000012118F805009047206A401C2062281E0A
:100A3000A5F10105F3DC2046FFF7CAFC207800068B
:100A400002D50220BDE8F0870120FBE770472DE9C1
:100A5000FF4F0C461E464FF0FF378BB0D2E9000126
:100A6000DDF860800A908A46C1F30A5505B93D4613
:100A7000002108464FF00000BAF1000F00F44000DA
:100A800005DA00EB80004FF4400101EA50004FEA24
:100A90009059B9F1010F00DDB9460A9850EA4A00B1
:100AA0000ED044F61050A5F2FF3545432F14B8F18F
:100AB000000F1ED07542291E1EDDC9F100021CE088
:100AC000B8F1010F4FF0000001D0302103E0F243F4
:100AD00005E02154401CB042FBDB304600220021DF
:100AE00021540B99C1F80880C1E900200FB0BDE87E
:100AF000F08FBD1B6D1CDEE74A4600DA694206A88E
:100B000000F0F2FB06AB93E8070003AB83E80700B5
:100B100050460A9900F0A3FC8DE80700A0F50050AC
:100B20001F3800900398002D09DD42F21F014A464C
:100B3000084403A90390684600F002FF08E0A0F50E
:100B400000504A461F3803A90390684600F00CFF86
:100B50008DE807000004000C03D04FF0FF3041087F
:100B600000E01046B8F1000F03D0002200921546B5
:100B70001EE0751E05D4FFF7CBFE303262556D1EA8
:100B8000F9D5B3460122084302D000227F1C04E0BD
:100B90002078302801D100227F1E002A099786D0B4
:100BA0001DE0112D07DAFFF7B3FE303262556D1CE0
:100BB00050EA0102F5D1084302D00098C8B10EE016
:100BC0000021681E05E0235C625C63542254401ED1
:100BD000491C8142F7DBAB46A81B401E0990002050
:100BE00004F80B000B98099AC0F80880C0E9002BA4
:100BF0007CE711264FF0000859E72DE9F04F8846B1
:100C00000446D21D22F0070191B0D1E90001CDE9DF
:100C10000A0102F054FE02460B98C00F01D02D20AD
:100C200007E02068810701D52B2002E0202101EA9E
:100C3000C000032A099001D0072A05DB034641467C
:100C4000204600F011FB0BE12078800601D5E06919
:100C500000E00620B8F1650F814606D0B8F1660FB6
:100C600018D0B8F1670F70D131E00020B9F1110F41
:100C7000009001DB112301E009F101030AAA01A997
:100C80000CA8FFF7E4FEDDE90C70002609F1010570
:100C9000834647E001204B4600904FF000470AAAE8
:100CA00001A90CA8FFF7D3FEDDE90DB00C995D4654
:100CB000002610B909F101000D18B9EB050003D4A5
:100CC000C0F1FF3609F10105A5EB09002BE0B9F1F0
:100CD000010F01DA4FF001090020B9F1110F009066
:100CE000484601DD112300E003460AAA01A90CA829
:100CF000FFF7ADFEDDE90C704D46002683462078F7
:100D000000070AD4AB4500DA5D4601A8012D04DDD9
:100D1000411911F8011C302907D04F4502DA17F1AB
:100D2000040F04DA012082460FE06D1EEEE7002F6B
:100D300002DCED1B3E4403E0781CA84200DD7D1C74
:100D4000B81B00F1010A4FF000472078000703D4D8
:100D5000AA4501DB4FF0FF3A0021B7F1004F0DF13A
:100D600043088DF8431024D002202B23002F01DAF2
:100D70007F422D230A21021EA0F1010000DC5FB199
:100D800097FBF1FC97FBF1F201FB1C7C17460CF181
:100D9000300C08F801CDEEE7A8F1010003702188BE
:100DA000090501D5452100E06521A0F1010800F801
:100DB000011C09980FA9A1EB0807FF1D00B1012034
:100DC000411901EBEA70A1693844081A401EA0617C
:100DD0002078C00602D42046FFF7E4FA099828B12B
:100DE000D4E901219047206A401C20622078C00687
:100DF00022D52046FFF7D6FA1EE0002E04DBB345CD
:100E000002DD01A8805D00E03020D4E90121904797
:100E1000206A401C2062761CAAF101005FEA000AE9
:100E20000AD100F01DFAC0680168405CD4E90121D4
:100E30009047206A401C2062281EA5F10105DCDCD9
:100E400007E0D4E9012118F8010B9047206A401C03
:100E50002062381EA7F10107F3DC2046FFF7B8FA3D
:100E6000032011B043E600002DE9F04F04460D4683
:100E7000D21D22F0070089B0D0E9009248461746FB
:100E8000394602F01CFD0246F80F01D02D2307E081
:100E90002068810701D52B2302E0202101EAC0034D
:100EA0008DF820300BB1012000E00020032A82469B
:100EB00001D0072A04DB2946204600F0D5F93DE1A0
:100EC0002078800601D40D2500E0E569C7F30A56B5
:100ED0000D2D49DA00214FEA175B08464FF000005C
:100EE000002F00F4400007DA00EB80004FF44001CF
:100EF00000EBD07001EA60008115012901DD4FF09F
:100F0000FF3100224FEA850CBCF1180F06D31346BF
:100F1000ACF118004FF08052C24003E04FF4801350
:100F200023FA0CF30CF10C0CBCF1200F04D3ACF140
:100F3000200C09FA0CF001E007FA0CF000294FF040
:100F4000004801DD18B90FE00ED140450CD319EB74
:100F500002095F4121B9404502D19F4329EA0209B4
:100F6000BBEB175F00D0761C2088000502D57B48BC
:100F7000784402E079487844193808AA302302F806
:100F80000A30037C0AF10101002E0AF1020A5354CF
:100F90006A4602DC4FF0300101E04FF031014FF0C2
:100FA00001088DF8001002D0A6F2FF3603E059EADE
:100FB000470100D06A4E002D02DC2178090704D5D4
:100FC0004FF002082E218DF80110C44600210BE0DD
:100FD000C7F303433F01C35C491C6D1E02F8083090
:100FE000052908F1010801DA002DF1DC00210CE0EF
:100FF00000EB1973491C1B786D1E082902F8083094
:101000004FEA091908F1010801DA002DF0DC217816
:10101000890602D514E0A8F10108E04505DD02EBE0
:10102000080111F8011C3029F5D0B8F1000F07DDD7
:1010300002EB080111F8011C2E2901D1A8F10108C9
:10104000002D05DD3E2102F808106D1E08F1010893
:10105000407C002E02F8080008F1010804DA2D2077
:10106000764202F8080002E02B2002F808000A216C
:101070004FF47A70864208F101080BDB96FBF0F31F
:10108000303302F8083096FBF0F308F1010800FB5A
:10109000136601E0642E0CDB642096FBF0F3303322
:1010A00002F8083096FBF0F308F1010800FB136624
:1010B00001E00A2E06DB96FBF1F0303002F8080062
:1010C00008F1010896FBF1F001FB1060303002F8E6
:1010D0000800A16908F1010808EB050202EB0A000B
:1010E000081AA0612078C00602D42046FFF75AF9FA
:1010F000216A08AE01EB0A00206204E0D4E9012174
:1011000016F8010B9047BAF1010AF7D22078C00611
:1011100002D52046FFF746F96E4609E016F8010BA6
:101120003E280FD0D4E901219047206A401C20625C
:10113000B8F10108F2D22046FFF74AF909B00320BE
:10114000BDE8F08F206A2844206203E0D4E9012141
:10115000302090476D1EEBD3F8E700000F4C0000E5
:1011600002FCFFFF10B5436913B1AFF3008001E04B
:10117000FFF751F9012010BD127800F124010A7027
:1011800000224A700122EDE711684FF0FF32E9E7D3
:1011900010B5436913B1AFF3008001E0FFF7D2F956
:1011A000012010BD128800F1240182840022C28433
:1011B0000122EDE711684FF0FF32E9E770B51646FE
:1011C0000C46054600F044F8036893F80101012835
:1011D00006D0FF2C0FD8185D68B101202C7070BDAF
:1011E000D3F807013246214603F207130344284689
:1011F000BDE8704018474FF0FF3070BD00487047A1
:10120000A00000207546FFF7F9FFAE4605006946CD
:10121000534620F00700854618B020B5FFF718F8B0
:10122000BDE820404FF000064FF000074FF00008E7
:101230004FF0000B21F00701AC46ACE8C009ACE868
:10124000C009ACE8C009ACE8C0098D467047000091
:1012500010B500F005F8001D10BD00BFF52F00000F
:1012600000487047C00000202DE9F0411F460446A9
:1012700003260168072A01F4006004DB08B116A503
:1012800005E016A503E008B115A500E015A521F0BD
:1012900010002060A069C01EA0610FB1401EA061B7
:1012A0002046FFF77FF84FB1D4E901213846904737
:1012B000206A401C2062C01C206206E0206AFAE717
:1012C000D4E9012115F8010B9047761EF8D220468B
:1012D000FFF77EF8BDE8F0814E414E006E616E0072
:1012E000494E4600696E66002DE9F0478146164674
:1012F0008AB0334878440DC88DE80D0030487844F2
:10130000801C03AC0DC884E80D0041F69B300844F6
:10131000372190FBF1F290FBF1F5A5F1800501FB7F
:1013200012041B3C02D56442012000E00020DFF8DB
:1013300090A080460027FA44AAF1BE0A0DE0E0071B
:1013400009D03246684607EB47010AEB810100F0FD
:101350000BFB8DE8070064107F1C002CEFD1184FA9
:101360007F44AC3F18E0E80714D007EB04100DF100
:10137000180A90E80E008AE80E00C068F04201D119
:1013800098190890324606A903A800F0EDFA03ABBD
:1013900083E807006D10641C002DE4D132466946D5
:1013A000B8F1000F03A802D000F0CAFA01E000F083
:1013B000DBFAC9E90001C9F808200AB0BDE8F087E6
:1013C0001C4900000446AFF300802046FEF72BFFC7
:1013D0004FF0013C50F8042B51F8043B9A4221D1C4
:1013E000A2EB0C03934313EACC1317D150F8042B50
:1013F00051F8043B9A4215D1A2EB0C03934313EA34
:10140000CC130BD150F8042B51F8043B9A4209D16C
:10141000A2EB0C03934313EACC13DBD04FF0000094
:10142000704700BFD01A01BAB1FA81F101F018017A
:1014300022FA01F0CB40C1F12001DBB2C0B2C01AE8
:101440002CFA01F3D11A914311EAC311E6D1704786
:1014500001491820ABBEFEE72600020070475FEA94
:10146000400C08BF91F0000F4FEA8C234FEAC122D5
:1014700043EA51514FEA1C5018BF00F5F0404FEAC3
:10148000300018BF41F000415FEA6C5C00F0298039
:10149000BCF1FF3F08BF40F080407047130C06BF0F
:1014A00012044FF0100C4FF0000C130E04BF120288
:1014B0000CF1080C130F04BF12010CF1040C930F74
:1014C00004BF92000CF1020CD30F04BF52000CF1C8
:1014D000010C11464FF00002A0F11F00A0EB0C0020
:1014E000704711F0004F08BF704731F000413FF4E2
:1014F000D5AF0B0C06BF09044FF0100C4FF0000CD9
:101500000B0E04BF09020CF1080C0B0F04BF0901FC
:101510000CF1040C8B0F04BF89000CF1020CCB0FF3
:1015200004BF49000CF1010CCCF12003A0EB0C002E
:1015300022FA03F302FA0CF241EA030100F101007E
:10154000704720F07F4C80EA030023F07F47ACEB2C
:10155000070303F57C5300F0004003F1FF032DE97E
:1015600080494FEA154B09B44FEA144325EA0B4E64
:1015700024EA03480FF2042606EB132749083E78B5
:101580005FEA320203FB0667C7F5000707FB06F6B2
:101590004FEA54374FEAD64606F1020607FB066CBF
:1015A000CCF1005C4FEA1C472CEA074C07FB06F421
:1015B0000CFB06F504EB15464FEA961634BF0020E7
:1015C0004FF000404FEAD13706FB07FC4FEA1C4CB6
:1015D0000CFB0BF7D21B03FB0CF761EB07010CFBB9
:1015E0000EF7B0EB074072EB17420CFB08F734BF65
:1015F000A2EB0742B2EB074261EB17414FEA0C4402
:101600004FEA910706FB07FC4FEA1C4C0CFB0BF75B
:10161000B0EBC74072EB573203FB0CF734BFA2EBC1
:10162000C742B2EBC74261EB57310CFB0EF7B0EB90
:10163000C70072EB57720CFB08F734BFA2EBC7026E
:10164000B2EBC70261EB5771039F4FEA816141EA38
:10165000921104EBCC044FEAD1374FEA826206FBC9
:1016600007FC42EA90124FEA80604FEA1C4C0CFBE8
:101670000BF7D21B03FB0CF761EB07010CFB0EF71A
:10168000B0EB074072EB17420CFB08F734BFA2EB3C
:101690000742B2EB074261EB17414FEA8C554FEA24
:1016A000910704EB9C2406FB07FC4FEA1C4C0CFB47
:1016B0000BF7B0EBC74072EB573203FB0CF734BFAC
:1016C000A2EBC742B2EBC74261EB57310CFB0EF7FE
:1016D000B0EBC70072EB57720CFB08F734BFA2EBFC
:1016E000C702B2EBC70261EB577115EB4C254FEA0D
:1016F000816141EA92114FEA82624FEAD13742EAB0
:10170000901206FB07FC44F100044FEA80604FEAA8
:101710001C4C0CFB0BF7D21B03FB0CF761EB070116
:101720000CFB0EF7B0EB074072EB17420CFB08F70F
:1017300034BFA2EB0742B2EB074261EB174115EB56
:101740001C154FEA813141EA92414FEA823242EA66
:1017500090424FEA80304FEA0C7644F1000448EAA8
:1017600003434EEA0B484FF0000EB2EB080C71EB4E
:10177000030724BF624639464EEB0E0E4FF0000BB6
:101780000018524149414BEB0B0BB2EB080C71EBCB
:1017900003077BF1000B24BF624639464EEB0E0E69
:1017A0004FF0000B0018524149414BEB0B0BB2EBD1
:1017B000080C71EB03077BF1000B24BF624639462E
:1017C0004EEB0E0E51EA020718BF46F0010616EB6B
:1017D0000E7655F1000254F1000103D5BDE88901F0
:1017E000BDE80088BDE88901BDE80048B61952414E
:1017F00041EB0101A3F10103704780807F7E7D7C76
:101800007B7A7978777676757473727171706F6E92
:101810006E6D6C6C6B6A6A6968686766666564643D
:10182000636362616160605F5F5E5E5D5D5C5C5BC7
:101830005B5A5A5959585857575656555555545436
:10184000535352525251515050504F4F4F4E4E4D94
:101850004D4D4C4C4C4B4B4B4A4A4A4949494848E0
:101860004847474747464646454545444444444320
:1018700043434342424242414141002B26D4770038
:1018800021D01CB54FEA370703B44FF010004FF0DA
:1018900010014FF000000FBCBDE810400BF1010B30
:1018A000BBF1010F08BF5FEA170722BF12F1010267
:1018B00011F101014FF0004143F1000300F000403D
:1018C00043EA00007047F9D35708DAE746EA0646CC
:1018D00013F1400F4FEA16461FDD13F1200FDFBF53
:1018E00016430A46002120335B42C8D0C3F12007CB
:1018F00046EA064602FA07F74FEA164646EA0706A0
:10190000C3F1200722FA03F201FA07F721FA03F1E3
:101910004FF0000342EA0702B1E746EA020646EA50
:1019200006464FEA164646EA0106BCBF46EA0646A8
:10193000360C4FF000034FF000024FF000019EE71D
:101940002DE9C048934630B491E8380007C831EA21
:10195000400C48BF34EA430C03D5FFF7F2FDFFF714
:101960008CFFF0BCBDE800882DE9C048934630B438
:1019700091E8380007C810F0804F08BF13F0804F7F
:1019800003D100F005F8FFF778FFF0BCBDE8008850
:1019900020F07F4780EA030023F07F4C07EB0C0325
:1019A000A3F57C5300F00040A3F1FE0392F0000F7A
:1019B00000F0B38095F0000F00F077802DE9014929
:1019C0004FEA11404FEA144621EA004800FB06FCAA
:1019D00024EA064708FB06F607FB08F800FB07F7B2
:1019E00018EB06484CEB164C4FEA124B18EB074825
:1019F0004FEA15464CEB174022EA0B4E0BFB06FC58
:101A000025EA06470EFB06F607FB0EFE0BFB07F763
:101A10001EEB064E4CEB164C4FF000061EEB074E2D
:101A20004CEB174B18EB0B0840F1000018EB0E0BBA
:101A300058EB000840F100008F1A4FF000013CBF46
:101A4000C943661B14BFB5EB040C00213CBFC9435E
:101A5000F61B4FEA17444EEA8E0E27EA04454FEA7A
:101A60001C4704FB07622CEA074C05FB07F70CFB3D
:101A700005F604FB0CFC16EB074642EB174216EB8F
:101A80000C4642EB1C421BEB060658EB020241419E
:101A900046EA9E0601D5BDE80189B619524141EBDF
:101AA0000101A3F10103BDE801894FEA14454FEAA2
:101AB000114724EA054621EA074C05FB07F406FB1B
:101AC00007F70CFB06F105FB0CFC11EB074144EB9F
:101AD00017444FEA124711EB0C4144EB1C4422EA35
:101AE000074C05FB07F206FB07F70CFB06F605FBA8
:101AF0000CFC16EB074642EB174216EB0C4642EB8A
:101B00001C456A1854F1000148BF7047B61952418C
:101B100041EB0101A3F10103704795F0000F37D0AD
:101B20004FEA11424FEA144721EA024624EA074CE1
:101B300002FB07F106FB07F70CFB06F402FB0CFCAB
:101B400014EB074441EB17414FEA154714EB0C44E3
:101B500041EB1C4125EA074C02FB07F506FB07F7A2
:101B60000CFB06F602FB0CFC16EB074645EB174593
:101B700016EB0C4645EB1C42121951F1000148BF0F
:101B80007047B619524141EB0101A3F101037047BF
:101B90004FEA14454FEA114724EA054621EA074C6B
:101BA00005FB07F106FB07F70CFB06F24FF00006FA
:101BB00005FB0CFC12EB074241EB174112EB0C4208
:101BC00051EB1C4148BF7047921841EB0101A3F152
:101BD0000103704710B50121014800F0A9F910BDBB
:101BE0000008014008B50121042001F0FFF9102090
:101BF0008DF803000120ADF8000003208DF80200ED
:101C00006946044800F000F90121024800F092F909
:101C100008BD00000008014000BFFEE710B500202D
:101C200001F0F0FA10BD000008B50121102001F00C
:101C3000DDF94FF48040ADF8000010208DF803006E
:101C400003208DF802006946014800F0DDF808BD68
:101C50000010014010B5FFF7E7FF4FF48041024844
:101C600000F068F910BD00000010014008B54FF405
:101C70008040ADF8000048208DF803006946024816
:101C800000F0C2F808BD00000010014008B54FF494
:101C90008040ADF8000010208DF8030003208DF87F
:101CA00002006946014800F0AFF808BD001001408D
:101CB00070B50025002427E000BF4FF48041144890
:101CC00000F02DF90028F8D0282000F086F84FF415
:101CD00080410F4800F023F901280ED100BF4FF4D6
:101CE00080410B4800F01BF90128F8D0C4F107012E
:101CF00001208840C0B2054304E0C4F1070101207F
:101D000088408543601CC4B2082CD5DB284670BDD2
:101D10000010014010B50446FFF7B8FF4FF48041B2
:101D2000264800F005F9122000F04BF84FF48041EE
:101D3000224800F0FFF81E2000F04FF8FFF796FF52
:101D40004FF480411D4800F0EAF888BB00BF4FF413
:101D500080411A4800F0E3F80028F8D000BF4FF4A3
:101D60008041164800F0DBF80128F8D0FFF7A0FF0B
:101D70002070FFF79DFF6070FFF79AFFA070FFF7DC
:101D800097FFE070FFF794FF2071FFF77FFF4FF49C
:101D900080410A4800F0CEF8207861780844A178A4
:101DA0000844E17808442179884202D1012010BD1D
:101DB00001E00020FBE70020F9E7000000100140EF
:101DC000704700B5034603E04FF47A7000F005F861
:101DD0001800A3F10103F7D100BD00EBC001C90059
:101DE0004FF0E0225161002191610521116100BF96
:101DF0004FF0E021096901F480310029F8D0042175
:101E00004FF0E022116170472DE9F04102460025B4
:101E10000026002000230024002791F803C00CF0C6
:101E20000F0591F803C00CF0100CBCF1000F03D0AB
:101E300091F802C04CEA050591F800C0BCF1000F12
:101E400031D0146800202BE04FF0010C0CFA00F3A5
:101E5000B1F800C00CEA03069E4220D183004FF087
:101E60000F0C0CFA03F7BC4305FA03FC4CEA04041C
:101E700091F803C0BCF1280F06D14FF0010C0CFA09
:101E800000FCC2F814C00AE091F803C0BCF1480F8E
:101E900005D14FF0010C0CFA00FCC2F810C0401C38
:101EA0000828D1D31460B1F800C0BCF1FF0F34DDB5
:101EB000546800202EE000F1080C4FF0010808FAE9
:101EC0000CF3B1F800C00CEA03069E4221D1830056
:101ED0004FF00F0C0CFA03F7BC4305FA03FC4CEA75
:101EE000040491F803C0BCF1280F05D100F1080CDF
:101EF00008FA0CF8C2F8148091F803C0BCF1480F3E
:101F000007D100F1080C4FF0010808FA0CF8C2F8EC
:101F10001080401C0828CED35460BDE8F0810246F2
:101F2000002093680B400BB1012000E000207047B7
:101F300041617047016170470AB1016100E0416190
:101F4000704700002DE9FC4BDFF8A4B169486A49ED
:101F50006A4B6B4ACDE900106A496B4800F0C2FC3D
:101F60006948B0F90000BE3802F0C2FB8046674AFB
:101F7000674B02F0D5FB06460022664B02F060FA82
:101F8000044602F07BF9644908605E48B0F900003D
:101F9000083802F0ADFB06465C4A5D4B02F0C0FB20
:101FA000044600225B4B02F04BFA804602F066F9D1
:101FB0005A4908605248B0F90000A0F67E1002F0BD
:101FC00097FB0646514A524B02F0AAFB804600227C
:101FD000504B02F035FA044602F050F950490860BF
:101FE0004648B0F90000363002F0F0FF81464D4916
:101FF000584602F009FF4946019003F033F8804645
:1020000002F068FE06464FF06632474B02F018FABF
:10201000044602F033F9454908603748B0F900003A
:102020002C3802F0D3FF81463E49584602F0ECFEC0
:102030004946019003F016F8804602F04BFE064632
:102040004FF06632384B02F0FBF9044602F016F905
:10205000374908602748B0F90000401C02F0B6FF7D
:1020600081463049584602F0CFFE4946019002F0C1
:10207000F9FF804602F02EFE06464FF066322A4BEC
:1020800002F0DEF9044602F0F9F82A490860244813
:10209000006822490968CDE900101F4803682548F7
:1020A0000268234801682148006800F085F9224849
:1020B000006802F00FFE044622460B461FA001F006
:1020C0006DF82048006802F005FE044622460B46E3
:1020D0001DA001F063F81F48006802F0FBFD0446F4
:1020E00022460B461CA001F059F85046BDE8FC8B77
:1020F000DA0F4940200000201E0000201C000020B4
:102100001A00002018000020160000209A999999C2
:10211000999923400000A0402400002028000020BE
:102120002C00002000003443666630403000002060
:102130003400002038000020940000205961773AD4
:10214000256409009800002050697463683A25648A
:10215000090000009C000020526F6C6C3A25640D51
:102160000A0000000EB501A8FFF7D4FD01280CD12C
:102170009DF8070000909DF806309DF805209DF819
:10218000041004A001F00AF802E00AA001F006F829
:102190000EBD000048756D693A25642E25645248CD
:1021A00020202C54656D703A2025642E2564432030
:1021B0000D0A0000526561642044485431312045C5
:1021C00052524F52210D0A0008B50121042000F09F
:1021D0000DFF10208DF80300C001ADF800000320B2
:1021E0008DF8020069460C48FFF70EFE28208DF896
:1021F00003004FF48050ADF8000069460648FFF731
:1022000003FE00224FF480510348FFF795FE0F2094
:10221000FFF7E3FD08BD00000008014000BFFEE736
:1022200021B1028842F48062028004E002884FF605
:10223000FF331A400280704770B502460024002523
:1022400000230020958A138B1B0445EA030626F021
:102250007F4404EA01068E4201D1012000E0002003
:1022600070BD21B1028842F00102028004E00288C0
:102270004FF6FE731A400280704721B1028842F483
:102280008072028004E002884FF6FF631A400280E9
:10229000704721B1028842F40072028004E0028893
:1022A0004FF6FF531A400280704700002DE9F043BB
:1022B00085B004460D460026B1460427DFF8CC80E1
:1022C000A6884FF6C0700640684600F09FFEDDF815
:1022D00008802F48B8FBF0F01FFA80F946EA09069B
:1022E000A68020884FF6FE710840208000262949EC
:1022F000286888420CD828684000B8FBF0F087B204
:10230000042F00DA04273E4309F10100208427E06E
:10231000E8884BF6FF71884206D1286800EB400040
:10232000B8FBF0F087B209E0286800EBC00101EBD0
:102330000010B8FBF0F087B247F48047C7F30B00FA
:1023400008B947F0010747F4004006434FF4967080
:1023500009FB00F04FF47A7190FBF1F0401C2084EF
:10236000A683208840F00100208026884FF6F530B3
:102370000640A8886989084306432680A8892989D8
:102380000843208105B0BDE8F083000000127A0008
:1023900040420F00A08601000146088AC0B2704783
:1023A00012B141F0010102E04FF6FE7319400182C3
:1023B00070470182704700000FB595B01B99084621
:1023C00002F050FE08901A99084602F04BFE069063
:1023D0001899084602F046FE0590069902F0A6FC00
:1023E0000790089902F0A2FC099002F073FCCDE975
:1023F0000A0101F0F1FECDE90C0101F03FFF14905C
:102400001499189802F000FD189014991A9802F087
:10241000FBFC1A9014991B9802F0F6FC1B90FE48E6
:102420000168FE48006802F01DFE0C90FC4801683F
:10243000FC48006802F016FE0B900C9902F010FFA9
:102440004FF080410D9002F00DFE1390F4480168AA
:10245000F148006802F006FE0C90F2480168EF486F
:10246000006802F0FFFD0B900C9902F05FFC4FF04A
:1024700080410D9002F0F6FD1290E9480168006875
:1024800002F0F0FD0D90E4480168006802F0EAFDFA
:102490000B90E4480168006802F0E4FD0990DF4811
:1024A0000168006802F0DEFD0890099902F0D8FE8C
:1024B0000A900B9902F0D4FE0C900D9902F036FCB4
:1024C000119012991B9802F0CDFD0D9011991A9858
:1024D00002F0C8FD0C900D9902F0C2FE1090119907
:1024E000189802F0BFFD0D9013991B9802F0BAFDE9
:1024F0000C900D9902F0B4FE0F9013991A9802F007
:10250000B1FD0D901299189802F0ACFD0C900D9948
:1025100002F0A6FE0E90C449109802F0A3FD0D90A3
:10252000C24801680D9802F001FCC0490860BE492C
:102530000F9802F097FD0D90BD4801680D9802F0CC
:10254000F5FBBB490860B8490E9802F08BFD0D9071
:10255000B84801680D9802F0E9FBB6490860B64832
:10256000109902F07FFD0C90159902F0DFFB0D90A1
:10257000AE4801680D9802F0D9FB1590AE480F994E
:1025800002F070FD0C90169902F0D0FB0D90A84857
:1025900001680D9802F0CAFB1690A7480E9902F048
:1025A00061FD0C90179902F0C1FB0D90A1480168E4
:1025B0000D9802F0BBFB179099481799006802F03C
:1025C00051FD0B9094481699006802F04BFD09905C
:1025D0009448006880F000400790159902F042FD91
:1025E0000890099902F03CFE0A900B9902F038FE1F
:1025F00092490C9002F036FD0D90884801680D98C4
:1026000002F094FB8549086085481699006802F03D
:1026100029FD0B9080481799006802F023FD09906E
:102620007E480168159802F01DFD0890099902F096
:102630007DFB0A900B9902F013FE80490C9002F08A
:1026400011FD0D90774801680D9802F06FFB7549F8
:10265000086073480168159802F004FD0B907148FA
:102660001799006802F0FEFC09906C481699006802
:1026700002F0F8FC0890099902F0F2FD0A900B991B
:1026800002F054FB6D490C9002F0ECFC0D90624896
:1026900001680D9802F04AFB5F490860084601682E
:1026A000159802F0DFFC0B905E481699006802F066
:1026B000D9FC099059481799006802F0D3FC08909A
:1026C000099902F033FB0A900B9902F0C9FD5B49AE
:1026D0000C9002F0C7FC0D90514801680D9802F073
:1026E00025FB4F49086008460168006802F0BAFC03
:1026F000089049480168006802F0B4FC0690494817
:102700000168006802F0AEFC04904448016800686B
:1027100002F0A8FC0390049902F008FB05900699CA
:1027200002F004FB0790089902F000FB099002F008
:10273000D1FACDE90A0101F04FFDCDE90C0101F01C
:102740009DFD149035481499006802F05DFB3349F3
:10275000086034481499006802F056FB314908605B
:102760002D481499006802F04FFB2B4908602C4853
:102770001499006802F048FB29490860274801685D
:102780004FF0804002F06EFC0490234801680498EA
:1027900002F068FC0690234801684FF0404002F0C8
:1027A00061FC04901E480168049802F05BFC0590EF
:1027B000069902F0BBFA079002F08CFACDE9080105
:1027C00001F002F94FF066321D4BCDE90A0101F02C
:1027D000A7FFCDE90C0101F051FD1A4908600E4830
:1027E00001684FF0804002F03DFC01900A4801680A
:1027F000019802F037FC03900A4801684FF040400E
:1028000002F030FC019007480168019802F02AFCB0
:102810000290039918E0000080000020780000205A
:10282000840000207C0000206F12033B8800002001
:102830008C000020900000200000C8426F12833AF4
:1028400066A64C409800002002F00AFD4FF07E5131
:10285000049002F06BFA059002F03CFACDE9080111
:102860001A4801684FF0804002F0FCFB02901848C3
:102870000168029802F0F6FB0490164801684FF0D8
:10288000804002F0EFFB029013480168029802F0CA
:10289000E9FB0390049902F049FA059002F01AFA54
:1028A000CDE90601DDE9082301F0D6FA4FF06632E2
:1028B0000A4BCDE90A0101F033FFCDE90C0101F02B
:1028C000DDFC0749086019B000BD00007800002059
:1028D0007C000020800000208400002066A64C4080
:1028E0009C0000202DE9F05F06460F469046994671
:1028F000DDE90AAB3B2000F09DF804463C2000F0E7
:1029000099F8054645EA042000B230803D2000F0E9
:1029100091F804463E2000F08DF8054645EA042073
:1029200000B238803F2000F085F80446402000F0D7
:1029300081F8054645EA042000B2A8F800004320CB
:1029400000F078F80446442000F074F8054645EAA3
:10295000042000B2A9F80000452000F06BF80446FE
:10296000462000F067F8054645EA042000B2AAF8C0
:102970000000472000F05EF80446482000F05AF8B6
:10298000054645EA042000B2ABF80000BDE8F09F20
:1029900000B585B00121880500F018FB0121082051
:1029A00000F024FB1C208DF813004FF44060ADF8BC
:1029B000100003208DF8120004A91C48FFF724FA28
:1029C0000020ADF804004CF2503000904BF6FF7040
:1029D000ADF806004FF48060ADF80A000001ADF8D4
:1029E0000C000020ADF8080069461148FFF75EFCB6
:1029F00001210F48FFF735FC01216B2000F078F82A
:102A000000216C2000F074F80921192000F070F802
:102A100006211A2000F06CF818211B2000F068F83D
:102A200018211C2000F064F805B000BD000C014026
:102A30000058004070B5044601212148FFF71DFCF5
:102A400020491F4800F042F80022D0211C48FFF71F
:102A5000A7FC1D491A4800F039F821461848FFF72D
:102A6000A8FC1949891C164800F030F801211448C7
:102A7000FFF703FC1349124800F028F80122D02187
:102A80000F48FFF78DFC0F49491C0D4800F01EF858
:102A900000210B48FFF7C4FB01210948FFF7F9FBB0
:102AA00008493F31064800F011F80548FFF774FC6B
:102AB000054601210248FFF7B3FB284670BD000020
:102AC00000580040010003008200070070B5054671
:102AD0000E4642F2107402E0641E04B905E031466D
:102AE0002846FFF7A9FB0128F6D100BF70BD000002
:102AF00070B504460D4601211348FFF7BEFB13498C
:102B00001148FFF7E3FF0022D0210F48FFF748FCF0
:102B10000F490D48FFF7DAFF21460B48FFF749FC44
:102B20000B49891E0848FFF7D1FF29460648FFF7E1
:102B300040FC0749891C0448FFF7C8FF01210248EF
:102B4000FFF7A7FB70BD0000005800400100030024
:102B50008200070000BFFEE77047000070B500214B
:102B600000230F22C47804B3154C246804F4E064F5
:102B7000C4F5E064210AC1F10403CA40447804FAB0
:102B800003F184781440214309010E4C0678A155C5
:102B9000047804F01F050124AC4005786D11AD00E8
:102BA00005F1E025C5F8004109E0047804F01F05AF
:102BB0000124AC40044D0678761145F8264070BDDE
:102BC0000CED00E000E400E080E100E00249014398
:102BD000024A1160704700000000FA050CED00E0A9
:102BE00070B500240EE00021204600F0F0F800252A
:102BF00004E0002000F07CF9681CC5B2802DF8DBF1
:102C0000601CC4B2082CEEDB70BD000008B50121C9
:102C1000082000F0EBF914208DF8030003208DF854
:102C200002004FF48070ADF8000069460A48FFF7D3
:102C3000EBF84FF40070ADF8000069460648FFF766
:102C4000E3F8012211020448FFF776F9012251024C
:102C50000148FFF771F908BD000C014070B5054649
:102C6000002415E08020204100EA05024FF40071A5
:102C70000E48FFF761F9012211020C48FFF75CF9D9
:102C800000224FF480710948FFF756F9601CC4B266
:102C9000082CE7DB012211020448FFF74DF900225E
:102CA0004FF480710148FFF747F970BD000C0140F7
:102CB00010B5012251020A48FFF73EF90122110224
:102CC0000748FFF739F900224FF400710448FFF775
:102CD00033F900224FF480710148FFF72DF910BD40
:102CE000000C014010B500224FF400710648FFF7B8
:102CF00023F9012211020448FFF71EF901225102B3
:102D00000148FFF719F910BD000C014070B500240F
:102D100006E0002500E06D1CB5F57A7FFBD3641C4E
:102D2000B4F57A7FF5D3FFF771FFAE2000F0D0F84D
:102D3000D52000F0CDF8802000F0CAF8A82000F0DF
:102D4000C7F83F2000F0C4F8D32000F0C1F80020FD
:102D500000F0BEF8402000F0BBF8A12000F0B8F869
:102D6000C82000F0B5F8DA2000F0B2F8122000F028
:102D7000AFF8812000F0ACF8CF2000F0A9F8D920FE
:102D800000F0A6F8F12000F0A3F8DB2000F0A0F896
:102D9000302000F09DF8A42000F09AF8A62000F062
:102DA00097F88D2000F094F8142000F091F8AF20EF
:102DB00000F08EF8FFF714FF70BD10B50246012039
:102DC00000E050430B00A1F10101FAD110BD70B534
:102DD00005460C4645F0B00000F07AF8102141EAB3
:102DE000141000F075F804F00F0000F071F870BDD9
:102DF0002DE9F04105460E461746721ED206110E09
:102E00006A1E5206100EFFF7E2FF002409E0A7F148
:102E10002001134A02EB0111085D00F069F8601C03
:102E2000C4B2082CF3DB721ED206110E6A1E0123F7
:102E300003EB4202D0B2FFF7CAFF00240BE0A7F178
:102E40002001074A02EB011204F10801505C00F076
:102E50004FF8601CC4B2082CF1DBBDE8F081000023
:102E6000425400082DE9F04780460E4617461D469D
:102E7000002415E0281B411E0A20FFF79EFFB7FB28
:102E8000F0F00A21B0FBF1F201FB120000F1300971
:102E90003019C1B24A464046FFF7AAFF601CC4B2CF
:102EA000AC42E7DBBDE8F0872DE9F04107460E466E
:102EB0001546002407E02A5D3019C1B23846FFF7F5
:102EC00097FF601CC4B2285D0028F4D1BDE8F081F2
:102ED00010B50446FFF7ECFE7820FFF7BFFE002098
:102EE000FFF7BCFE2046FFF7B9FEFFF7FBFE10BD63
:102EF00010B50446FFF7DCFE7820FFF7AFFE402058
:102F0000FFF7ACFE2046FFF7A9FEFFF7EBFE10BD72
:102F100010B5024800F076F910BD00000000B44280
:102F200000B589B00121084600F050F801210420C5
:102F300000F05CF818208DF823000220ADF8200086
:102F400003208DF8220008A91A48FEF75DFF4FF014
:102F5000804000F07BFA0020ADF81A00ADF81600B2
:102F600044F61F60ADF818004720ADF814000020AB
:102F70008DF81C0005A94FF0804000F0CBFA01A8A5
:102F800000F0BCFA6020ADF804000020ADF80C00A1
:102F90000120ADF806000020ADF80A0001A94FF0AD
:102FA000804000F059FA0121880700F029FA09B0A1
:102FB00000BD00000008014010B5044621464FF056
:102FC000804000F0A5FA10BD7047000029B1064A04
:102FD000D2690243044BDA6104E0034AD2698243B6
:102FE000014BDA61704700000010024029B1064A27
:102FF00092690243044B9A6104E0034A9269824356
:10300000014B9A61704700000010024030B500216A
:103010000022002400232D4D6D6805F00C0121B124
:10302000042905D0082923D105E0294D056022E0B7
:10303000274D05601FE0254D6D6805F47012234D86
:103040006D6805F48034022505EB92421CB9214DD0
:10305000554305600BE01D4D6D6805F400351DB14D
:103060001C4D5543056002E0194D5543056002E0D3
:10307000174D056000BF00BF144D6D6805F0F001ED
:103080000909154D6B5C0568DD4045600F4D6D68A5
:1030900005F4E061090A104D6B5C4568DD40856010
:1030A0000A4D6D6805F46051C90A0B4D6B5C4568AB
:1030B000DD40C560054D6D6805F44041890B074D45
:1030C0006B5CC568B5FBF3F5056130BD00100240CF
:1030D00000127A0000093D000000002010000020CE
:1030E0007047000000B587B001218803FFF77EFF1D
:1030F00001210420FFF77AFF18208DF81B004FF400
:103100000070ADF8180003208DF81A0006A92148B8
:10311000FEF77AFE48208DF81B004FF48060ADF872
:10312000180003208DF81A0006A91A48FEF76CFE55
:103130004FF4165002900020ADF814000C20ADF8AA
:1031400012000020ADF81000ADF80E00ADF80C0034
:1031500002A9114800F03CFB012240F225510E4823
:1031600000F010FB4FF4A060FFF730FD25208DF834
:10317000040001208DF807008DF805008DF8060089
:1031800001A8FFF7EBFC0121034800F0B8FA07B0F3
:1031900000BD000000080140003801400FB400B538
:1031A0009BB01DA8019002A8019A1C99FDF7DAF8BE
:1031B0000020019002A800F013F81BB05DF814FB8A
:1031C00010B504462146054800F073FB00BF80217E
:1031D000024800F0A0FA0028F9D010BD00380140E4
:1031E00070B50446002504E0605DFFF7E9FF681C48
:1031F000C5B2605D0028F7D170BD10B5FFF790FE35
:1032000010BD00002DE9F04104460A49204601F0B6
:10321000FBFD8046084901F025FF0746074901F0FC
:1032200085FD064601F0B2FE85B22846FFF7C4FED2
:10323000BDE8F081000034430000FA440000FA4386
:1032400010B500F001F810BD0CB500200190009001
:103250003348006840F480303149086000BF30488E
:10326000006800F4003000900198401C0190009824
:1032700018B90198B0F5A06FF1D12948006800F4A1
:10328000003010B10120009001E000200090009873
:10329000012843D12348006840F01000214908600C
:1032A0000846006820F0030008600846006840F007
:1032B000020008601A48406819494860084640689A
:1032C00048600846406840F48060486008464068AE
:1032D00020F47C1048600846406840F4E8104860DC
:1032E0000846006840F08070086000BF0C48006825
:1032F00000F000700028F9D00948406820F0030071
:10330000074948600846406840F00200486000BF36
:103310000348406800F00C000828F9D10CBD0000FB
:1033200000100240002002407047000010B5134812
:10333000006840F0010011490860084640681049E3
:1033400008400E494860084600680E4908400B498D
:1033500008600846006820F480200860084640683D
:1033600020F4FE0048604FF41F008860FFF768FFFC
:103370004FF000600449086010BD000000100240DA
:103380000000FFF8FFFFF6FE08ED00E010B5012198
:10339000094800F041F801280CD10848D0E9002084
:1033A000521C40F100000549C1E9002001210248FA
:1033B00000F023F810BD0000000400406000002071
:1033C00010B50121094800F027F801280CD1084860
:1033D000D0E90020521C40F100000549C1E900205D
:1033E0000121024800F009F810BD0000000800406B
:1033F00070000020CA4302827047CA4302827047AD
:1034000021B1028842F00102028004E002884FF6F6
:10341000FE731A400280704730B502460020002338
:103420000024158A05EA0103958905EA010413B110
:103430000CB1012000E0002030BD1AB183890B439C
:10344000838102E083898B438381704701894FF632
:10345000F87211400181704770B5002400220023EA
:10346000058C4FF6EF7635400584028C8388048BFB
:1034700048F6FF752C404FF6FF452C400D884FF65F
:10348000FF7606EA05252C434FF6DF752A400D89A5
:1034900006EA05152A434D8806EA05152A43154D07
:1034A000A84202D0144DA8421DD14FF67F752A4084
:1034B0004D894FF6FF7606EA05152A434FF6BF758C
:1034C0002A408D8806EA05152A434FF6FF352B4022
:1034D0004FF2FF752B408D8906EA85052B43CD8978
:1034E00006EA85052B4383800483CD880587028403
:1034F00070BD0000002C014000340140002101801B
:1035000041808180C180018141818181C181704779
:1035100001877047002202881D4B98420ED01D4B38
:1035200098420BD0B0F1804F08D01B4B984205D089
:103530001A4B984202D01A4B984204D14FF68F731F
:103540001A404B881A43174B984207D0164B9842A3
:1035500004D04FF6FF431A40CB881A4302808B8871
:1035600083850B8803850A4B98420BD0094B984200
:1035700008D00E4B984205D00D4B984202D00D4B0F
:10358000984201D10B7A03860123838270470000A1
:10359000002C0140003401400004004000080040BD
:1035A000000C0040001000400014004000400140AA
:1035B00000440140004801401FB501210220FFF7EF
:1035C00005FD3748FFF742FF0020ADF80A00ADF8CF
:1035D00006000920ADF808004720ADF804000020DF
:1035E0008DF80C0001A92E48FFF794FF01212C480B
:1035F000FFF700FF012211462948FFF71EFF4FF495
:10360000A060FFF7E3FA1D208DF8000001208DF87F
:10361000030002208DF801008DF802006846FFF7D4
:103620009DFA01211E48FFF7EBFE01210420FFF760
:10363000CDFC1C48FFF70AFF0020ADF80A00ADF8EA
:1036400006000920ADF808004720ADF8040000206E
:103650008DF80C0001A91348FFF75CFF0121114808
:10366000FFF7C8FE012211460E48FFF7E6FE4FF4B1
:10367000A060FFF7ABFA1E208DF8000001208DF846
:10368000030002208DF8010001208DF80200684639
:10369000FFF764FA01210348FFF7B2FE1FBD0000E7
:1036A000000400400008004010B540F225510948D0
:1036B00000F03EF801280CD1064800F0F5F8064964
:1036C000087001200549087040F22551014800F0BA
:1036D00007F810BD003801405800002059000020B4
:1036E00010B50022002340F66A14A14200D100BFA9
:1036F0000A1201249440A3B2DC43048010BD21B11E
:10370000828942F40052828104E082894DF6FF737F
:103710001A408281704702460020B1F5007F00D137
:1037200000BF13880B400BB1012000E00020704760
:1037300070B50246002400230025002040F66A16DA
:10374000B14200D100BFC1F3421501F01F030126B1
:1037500006FA03F3012D02D19689334006E0022DCB
:1037600002D1168A334001E0968A33400C120126BA
:1037700006FA04F41688344013B10CB1012000E0BD
:10378000002070BDF0B5034600240026002500206F
:1037900040F66A17B94200D100BF1846C1F342147F
:1037A00001F01F06012707FA06F5012C01D10C30A4
:1037B00004E0022C01D1103000E014301AB1076887
:1037C0002F43076002E00768AF430760F0BD0000C9
:1037D0002DE9F04786B005460E460024A24600BFFC
:1037E000A1460027B08900B100BF2F462C8A4CF6B5
:1037F000FF700440F08804432C82AC894EF6F3102D
:103800000440B08831890843718908430443AC817E
:10381000AC8A4FF6FF400440B0890443AC8201A853
:10382000FFF7F4FB1F48874202D1DDF810A001E04A
:10383000DDF80CA0A88900F4004040B10AEBCA00F2
:1038400000EB0A1031684900B0FBF1F807E00AEB21
:10385000CA0000EB0A1031688900B0FBF1F864205F
:10386000B8FBF0F004012009642101FB1089A8894C
:1038700000F4004040B1322000EBC900B0FBF1F091
:1038800000F00700044308E0322000EB0910642137
:10389000B0FBF1F000F00F0004432C8106B0BDE84E
:1038A000F08700000038014001468888C0F3080016
:1038B0007047C1F308028280704700BFFEE74900ED
:1038C00050EAC12018BF04204A0D18BF40F0010083
:1038D00040F2FF72B2EB515F08BF40F002000128D6
:1038E00008BF052070472DE9F0414F1E00EBC701CE
:1038F0000446D1E9000115461E4637F006020DD0F8
:103900002A46334600F00CFF7F1E04EBC703D3E9C1
:10391000002300F0E5FC37F00602F1D1022F25D09C
:10392000042F13D0062F18BFBDE8F0812A46334676
:1039300000F0F6FED4E90A2300F0D2FC2A46334612
:1039400000F0EEFED4E9082300F0CAFC2A46334614
:1039500000F0E6FED4E9062300F0C2FC2A46334616
:1039600000F0DEFED4E9042300F0BAFC2A46334618
:1039700000F0D6FED4E9022300F0B2FC2A4633461A
:1039800000F0CEFED4E90023BDE8F04100F0A8BC71
:10399000012201F010BD00F0A3BC00221346104626
:1039A000114600F04DBD0000024A0020110701F051
:1039B00002BD000001FDFFFF30380A2801D20120BE
:1039C00070470020704700002DE9F04D8D4F21F029
:1039D000004A86B005460C46BA452ADBAAEB07002A
:1039E00028430AD08848824501DC1AD1CDB106B0FF
:1039F0002846BDE8F04DFFF7CBBF844A844B2846EC
:103A000000F08EFE07460E46824A834B284621462A
:103A100000F086FE06B03A463346BDE8F04D00F0B1
:103A20005FBC0120FCF7B8FC06B0BDE8F04DFFF725
:103A3000B4BF7A48824542DABAF1795F0BDA284698
:103A4000FFF73DFF042808BFFFF7AEFF284606B08A
:103A50002146BDE8F08D2A460B46104600F060FE78
:103A6000834602466E480E460B4606217844FFF711
:103A70003AFF5A46334600F053FE804669488A466C
:103A80005A46334604217844FFF72DFF5A46334601
:103A900000F046FE00223B4600F022FC02460B46A8
:103AA0004046514600F0CCFC2A46234600F038FE42
:103AB00006B02A462346BDE8F04D00F011BC28466A
:103AC00024F0004100223D463B4600F027FF4FF026
:103AD000FF3201F070FC0646024653480F460B4683
:103AE00006217844FFF7FFFE32463B4600F018FE01
:103AF000CDE900014D4832463B4604217844FFF7AA
:103B0000F2FE32463B4600F00BFE00222B4600F050
:103B1000E7FB834602913046394600F05DFB804664
:103B200043480D46504517DCDDE900015A46029B2B
:103B300000F086FC42462B4600F0F2FD42462B4642
:103B400000F0CEFB012201F036FC304A304B00F091
:103B5000D7FF304A304B4CE04FF0000A52460B463C
:103B6000404600F0BDFBCDE9031052462B461046FF
:103B7000194600F0D5FD32463B4600F0CFFEDDE9A8
:103B8000033200F05DFC06460F46DDE900015A46AF
:103B9000029B00F055FC83460091012230463946D5
:103BA00001F009FC194A1A4B00F0B8FE06460F4610
:103BB00001224046294601F0FEFB5A46009B00F0D8
:103BC000AFFD32463B4600F09BFF06460F46012202
:103BD0005046294601F0EFFB0E4DDFF858802A468B
:103BE000434600F09BFE32463B4600F097FE2A46D5
:103BF000434600F093FE002CD8BF81F0004106B090
:103C0000BDE8F08D0000F03F0000F07F075C14334A
:103C100026A6913C182D4454FB21F93F0000E03FBB
:103C2000C81F0000DE1F0000521F0000681F0000B8
:103C30003333EF3FFB21E93F2DE9F84F04460D46B2
:103C400021F0004000917349814211DC72498842A1
:103C500001DC06D12CB120462946BDE8F84FFFF71C
:103C600097BE6E48002DCCBF6D496E49BDE8F88FF8
:103C70006D49814211DD6D498142D8BF4FF0FF3659
:103C80006DDD20462946FFF71AFE042808BFFFF71E
:103C90008BFE20462946BDE8F88F6549654F25F023
:103CA0000045814233DD6449814219DD00263246F8
:103CB0004FF080432046294600F012FB80468A469A
:103CC00001222046294601F076FB00223B4600F007
:103CD00017FF4246534600F0B3FB04460D463EE054
:103CE00001260022BA463B462046294600F0F8FA53
:103CF00080460F46002253462046294600F000FF2A
:103D000042463B4600F09CFB04460D4627E04B49EB
:103D100081421BDDDFF828A10226002253462046FF
:103D2000294600F0FDFC00223B4600F0D9FA80460F
:103D30000F46002253462046294600F0E1FE424647
:103D40003B4600F07DFB04460D4608E00326224674
:103D50002B4600203B4900F073FB04460D462246EB
:103D60002B461046194600F0DBFC8B468246024685
:103D70000B4600F0D5FC07460246334888460B4602
:103D800006217844FFF7AFFD52465B4600F0C8FCC1
:103D900082462E488B463A46434605217844FFF733
:103DA000A2FD3A46434600F0BBFC02460B46002EFD
:103DB000504659460CDA00F093FA22462B4600F0A2
:103DC000AFFC01B022462B46BDE8F04F00F0A6BD87
:103DD00000F086FA22462B4600F0A2FC1C4A7A44E8
:103DE00002EBC603D3E9002300F08AFE22462B46ED
:103DF00000F086FE174A7A4402EBC603D3E900239B
:103E000000F08CFD009A002AB8BF81F00041BDE8A7
:103E1000F88F0000000010440000F07F182D44547B
:103E2000FB21F93FFB21F9BF0000DC3F0000203EF1
:103E30000000F33F0000F03F0000E63F0080034039
:103E40000000F83F0000F0BFB21D0000701D000030
:103E50000E1D0000D61C00002DE9F04D9446CCF15B
:103E6000000423F000464CEA0404524F46EAD4749E
:103E70009A46884621F00042BC4206D8454240EAB4
:103E8000050442EAD474BC4204D9BDE8F04D624650
:103E9000FFF781BDAAF14055A5F17F6555EA0C04F5
:103EA0000BD0022404EAAA74434DDFF810E144EA7F
:103EB000D87452EA000B04D00CE0BDE8F04DFFF7D7
:103EC000BBBE002C14BF012CBDE8F08D022C30D0FD
:103ED000032C32D056EA0C0B0AD0BE4220D1BA4293
:103EE00009D126F0804622F080423346114617E081
:103EF00000291ADB25E0DFF8C8B0FB44002C04BF22
:103F0000DBE90001BDE8F08D012C02BFDBE9000117
:103F100081F00041BDE8F08D022C0AD0032C0CD0BA
:103F2000BA4212D1B8F1000F0BDA23482549BDE897
:103F3000F08D28462449BDE8F08D28467146BDE83D
:103F4000F08D1D482149BDE8F08D921B12153C2AC9
:103F5000C4BF19481D490EDCBAF1000FBEBF12F1F3
:103F60003C0F0020014606DB624600F069FA21F0B2
:103F70000041FFF761FE002C08BFBDE8F08D012C69
:103F800004BF81F00041BDE8F08D114A114B022CB5
:103F900007D000F0B5FD2A46BDE8F04D0A4B00F011
:103FA000AFBD00F0ADFD2A46BDE8F04D064B00F078
:103FB000B5BC00000000F07F182D4454FB2109C05F
:103FC0006A1C0000FB21F9BFFB210940FB21F93FDE
:103FD000075C143326A6A13CFEF798FEFDF702FE0F
:103FE000FFF780F8FFF709F9FEF7D2FCFEF7ECF8CF
:103FF000FDF730FEFFF7E0FA4FF4A060FEF7E6FDB4
:104000002FA0FFF7CBF830A201210846FEF74CFFA6
:104010000020FFF7F7F852E000F08CF80446204645
:10402000E11700F06BF8C5B22B46224601210320B0
:10403000FEF718FF2046E11700F060F8401CC5B2FB
:1040400025A229464FF00300FEF72EFF4FF47A70A9
:10405000FDF7B7FEFEF786F8FDF774FF00211F4A53
:1040600011605160322C02DAFEF752FF01E0FDF7D9
:10407000D5FD1B491B48006801F0C0F801D201259D
:1040800000E0002516491848006801F0B7F801D291
:10409000012000E00020054311491448006801F0A8
:1040A000ADF801D2012000E0002005430DB1FDF77D
:1040B00091FD0A480CC80EA0FFF770F800BFABE7EF
:1040C0007465737400000000496E697469616C69FD
:1040D0007A652E2E2E0000006D6D0000700000200D
:1040E0000000404024000020280000202C00002078
:1040F0007379735F74696D653A2564002DE9F04149
:1041000004460D46012600270AE00A220023204625
:104110002946FCF7AFF804460D46761C47F1000728
:104120000020D4F10901A841EFD330463946BDE85B
:10413000F08100002DE9F04100250122D102234841
:10414000FDF7FAFE0F20FDF748FE00224FF4006154
:104150001E48FDF7F1FE00BF4FF480511B48FDF7EC
:10416000DEFE0028F8D00021194A1160516000BF1E
:104170004FF480511548FDF7D2FE0128F8D01448BD
:10418000D0E90010134AC2E900106422002311494B
:1041900003C9FCF76FF8263871F1000113D20D48FE
:1041A0004FF4AD7306C80020A1FB036802FB038235
:1041B00001FB0021022203463046FCF75BF804466F
:1041C0006420B4FBF0F528B2BDE8F081000801409E
:1041D00060000020680000202DE9F04106460F46EF
:1041E00000F0A8FB04000D4618BF0120284320F072
:1041F0000040C0F17F6000F1E040C00F0ED0301CE5
:1042000018BF0120384320F00040C0F17F6000F16A
:10421000E040C00F04BF0120FCF7BEF8204629464D
:10422000BDE8F08110B500290AD00878002807D031
:1042300005487844FDF7CCF8002801D0002010BDD7
:104240000248784410BD00001A1A0000121A00003B
:1042500010B500290AD00878002807D0054878440E
:10426000FDF7B6F8002801D0002010BD02487844C0
:1042700010BD00000A1A0000021A000021F00042DE
:10428000A2F16052B2F5801F01F0004328BFD2F1C5
:104290007F6C0BD95FEA001C43EAC20242EB50700C
:1042A00018BF704728BF20F001007047B2F5801F8B
:1042B000BCBF184670474FEA410C1CF5001F02D2E4
:1042C000084600F096BF70B500F0D4FA00000089EF
:1042D000FFF7F6BF4FF00040A0F5800070470000E8
:1042E00010B591EA030F48BF83F0004300F110843A
:1042F000841A71EB030C05D2121943EB0C03001B5B
:1043000061EB0C01DFF824E14FEA1154A4EB135CDC
:104310001EEA430F18BF9EEA445F73D023EA0E03E0
:10432000DCF1200E21EA045143F4801332D322FA47
:104330000CFE10EB0E0023FA0CFE41EB0E01CCF14B
:10434000200E03FA0EFE10EB0E0051F10001B1F544
:10435000801FCCF1200E32D201EB045112FA0EF282
:10436000BDE8104058BF7047401C38BF5FEA4202AA
:1043700018BF7047002814BF20F0010041F1000170
:104380004FEA410313F5001F38BF7047A1F1C04148
:1043900000F0BEBA012A43EB0302ACF1200CDCF1C1
:1043A0001F0E32BF4FF0000E23FA0CF310EB030088
:1043B00041EB0451B4EB115FD0D0A1EB045101F5F6
:1043C000801149085FEA300001EB04510ED350F12F
:1043D000000038BF12FA0EFE08D1BDE81040C9E750
:1043E000401C38BF5FEA4202CAD1C3E7BDE81040B3
:1043F0004FEA410313F5001F38BF7047A1F1C041D8
:1044000000F086BA9EEA445F08D011EA5E0FBDE86C
:10441000104004BF01F0004100207047BDE810408B
:1044200070B500F027FA00BF64FBBE3E0000E0FF5D
:1044300002494FF0000000F08CBF00BF0000F87F81
:104440002DE9C04130B4DFF8A0C23CEA111418BF16
:104450003CEA131400F0EC8081EA03051CEA111415
:1044600044EAD57418BF1CEA131500F0C780A4EB0A
:1044700005044FF0004545EAC12145EAC32341EA5E
:10448000505143EA525304F17F74994204F50034C9
:104490004FEAC0204FEAC22208BF904200F09C8041
:1044A0004FEA13650FF24016765D4FEA134506FB9F
:1044B00005F7C7F1807706FB07F74FEAD737A7FB69
:1044C00003687642C8F58038A7FB06CE38BFA8F14E
:1044D000010807FB08E64FF0000EA6FB028CE6FB86
:1044E00003CEDCF1000CCEF1004E38BFAEF1010E70
:1044F000A6FB0C584FF000074FF00005E6FB0E87B7
:10450000A1FB08C6A0FB07CE16EB0E0645F1000581
:10451000E1FB076515F1E04E7EBFA4F580345FEA4C
:1045200046066D4116F1800745F100054FEA172751
:104530004FEA066647EA0567A6F1DE46B6F1805FF8
:104540004FEA15251FD9384624F0010C05EBC4713C
:10455000BCF1FE6F01EB0C1102D8F0BCBDE800818C
:1045600024425CBF01F5801E9EEAC47F02D4F0BCE9
:10457000BDE80081244238D4F0BCA1F1C041BDE8BF
:10458000004100F0C5B94FEAD22242EA43524FEA55
:10459000D323A7FB02864FEAD02040EA415007FB15
:1045A00003661EEA0E0F4FEAD12105FB026658BFD3
:1045B000A6EB0056B6EB00564FEA520E4EEAC37E0B
:1045C00018EB0E0E56EB530EBDD518EB02085E41EC
:1045D0007F1C55F10005B6E74FF480154FF000073A
:1045E0004FF000064FF00008ADE7F0BC4FF00000C0
:1045F00001F1C04101F00041BDE8008111EA0C1F4A
:104600000CEA131500D00CE013EA0C1F00F0258013
:104610004FF00000F0BC81EA030101F00041BDE869
:104620000081F0BCBDE8004181EA030100F070B9EF
:10463000F0BCBDE8004170B500F01CF9097EFC3EFD
:1046400000F007B881EA03014FF0000001F00041DB
:10465000704781EA030100F05BB9F0BCBDE800419E
:104660004FF0000021497047FFFDFBF9F7F5F4F228
:10467000F0EEEDEBE9E8E6E4E3E1E0DEDDDBDAD8FD
:10468000D7D5D4D3D1D0CFCDCCCBCAC8C7C6C5C45B
:10469000C2C1C0BFBEBDBCBBBAB9B8B7B6B5B4B372
:1046A000B2B1B0AFAEADACABAAA9A8A8A7A6A5A45D
:1046B000A3A3A2A1A09F9F9E9D9C9C9B9A99999821
:1046C0009797969595949393929191908F8F8E8EC4
:1046D0008D8C8C8B8B8A8989888887878685858451
:1046E00084838382828181800000FF070000F87F3D
:1046F00010F0004248BF4042B0FA80F310FA03F1D4
:104700000AD0C3F11D0303F580634FEA415002EB69
:10471000035202EBD12170474FF0000070470000B8
:10472000DFF848C170B51CEA111E1EBF1CEA131544
:104730009EEA0C0F95EA0C0F00F06F8081EA0304EB
:1047400023EA4C134EEAD47E21EA4C1141F4801145
:1047500043F48013AE44A1FB024CA0FB0365AEF111
:104760007F7E361955EB0C05A1FB034C4CF1000381
:10477000A0FB021C16EB0C06654153F10003094235
:1047800018BF46F0010613F4007F0BD14FEA033146
:104790004FEA0530340341EA155140EA16506FF0F4
:1047A00003020AE04FEAC3214FEAC520F40241EABE
:1047B000555140EA56506FF0020202EB2E4201EBD7
:1047C000025585EACE710AD05FEA440C18BF24F086
:1047D000004450F1000041F1000120EAD47040F2A1
:1047E000FE7C624500D270BDA84214BF4FF08044E9
:1047F0004FF04044002E08BF0024BEF1806FA8BFD8
:10480000A1F1C041BDE8704080F282804FF000000D
:1048100001F1C04101F0004170479EEA0C0F0CEA23
:10482000131518BF95EA0C0F06D04FF0000081EA6F
:10483000030E0EF0004170BD00F01CF88900013E2F
:1048400000F007B800F009B84FEA430C5FEA5C5C7F
:1048500008D081EA030100F05BB84FEA410C5FEA3F
:104860005C5CF6D14FF00000014970470000FF0783
:104870000000F87F0EF1020E2EF0030E5EF8046BBE
:10488000364205D4012A43EB030515F5001F12D863
:10489000012841EB010C1CF5001F0CD80ED14FEA8A
:1048A000D17C15F5001F0CEB4C0C0CF1020C08BF71
:1048B0004CEBD37C04E04FF0080C01E04FEAD37CD2
:1048C0000CEB4C0526FA05F606F00706B6F1040CCB
:1048D00006D20EEB860CBDE870404CF0010C604730
:1048E000DFE80CF0090B02024FF000414FF000002E
:1048F000A1F5002170BD19461046012851EB0104B5
:1049000018BFD4F5001484BF002001F0004170BD31
:104910000808A0F500114FEA3101704791EA030F32
:1049200010B581F000413FF5E3AC83F0004300F0A7
:10493000EFB800002DE9F04101F5801CBCF5001F27
:10494000C0F2C3804FEA115C21EA0C510CF1FD0C5E
:1049500041F480115FEA5C0C0CF5C07C01D340008F
:1049600049413DA4890241EA905187028E0E0A0C0A
:10497000A45D04FB04F602FB06F6C6F14046A4FB68
:104980000662F60D46EA422606FB06F4A4FB012366
:104990005242C3F1404338BF5B1EA6FB02420024D3
:1049A000E6FB0324D20B42EA4446A6FB0623A1FB06
:1049B00002E2A3FB07E4A4184FF0000252F1000248
:1049C000E3FB01426442C2F1404E38BFAEF1010E3A
:1049D000A6FB04234FF00002E6FB0E32A2FB0346C7
:1049E0004FF00004B61954F10004E2FB0264A1FB8D
:1049F00006E6A4FB07E816EB08064FF0000858F19E
:104A00000008E4FB01687642C8F1405838BFA8F1BD
:104A10000108A2FB06E4A3FB08E52D194FF00004F2
:104A200054F10004E2FB0854A1FB05E6A7FB04E8EF
:104A300018EB06084FF0000656F10006E1FB04866D
:104A400018F1200556F10006A809A8F11B08B109C4
:104A500008F03F08B8F10A0F40EA86601CD901EB64
:104A60000C51BDE8F08100BFFCF5EEE8E2DDD8D3E3
:104A7000CFCBC7C3C0BDB9B6B4B1AEACA9A7A5A3CF
:104A8000A19F9D9B9A9896959392908F8D8C8B89E0
:104A90008887868584838281A0FB006800FB01F201
:104AA00008EB4208B8EB872807D5341858EB010407
:104AB000D5D5401C51F10001D1E7341A78EB01043F
:104AC000CDD4401E71F10001C9E75FEA4C0C5FEAEA
:104AD0009C5C0DD105D34FF0000001F00041BDE812
:104AE000F081BDE8F04170B5FFF7C4FE6DDBFFBE9D
:104AF000BDE8F0414FF00000004970470000F87F2A
:104B000010B591EA030F48BF83F000433FF5F0ABC7
:104B1000841A71EB030C07D212198CF0004C43EB92
:104B20000C03001B61EB0C01DFF8A4E14FEA115408
:104B3000A4EB135C1EEA430F18BF9EEA445F00F02B
:104B4000B08023EA6E03524221EA0451C3EB6E03A4
:104B500038BF5B1EDCF1200E25D322FA0CFE10EBD1
:104B60000E0043FA0CFE41EB0E01CCF1200E03FACD
:104B70000EFE10EB0E0051F10001CCF1200E29D4F5
:104B800012FA0EF201EB0451BDE8104058BF704715
:104B9000401C1CBFB2F1004F704700280CBF491CDD
:104BA00020F00100704712EB020E43EB030218BF26
:104BB0004FF0010E4EEA4202ACF1200CDCF11E0E69
:104BC00054D943FA0CFE10EB0E0051F1FF31CCF139
:104BD0001E0ED5D50EF1010E12FA0EFE404141EB2C
:104BE000010101EB445C5FEA5C5C10D910EBDE7004
:104BF00001EB045138BFBEF1004FBDE8104018BFB3
:104C0000704700280CBF491C20F00100704730D2CB
:104C10004FEAD42C11F5001124F400641BD0B1FA32
:104C200081F20B3AA41AA41ED2F12003914030FA6B
:104C300003F31943904001EBCC71002C01EB0451BC
:104C4000BDE81040A8BF704701F1C0414FF000001F
:104C500001F000417047B0FA80F310FA03F100D17F
:104C600010BDE41A173C4805C90AE4E701EB0451FA
:104C700010BD491001EB0451BDE810404FEA30006F
:104C800002E04FF0000170474A0008BF0042F8D030
:104C9000B2F5001F28BF704701F000414FF000003F
:104CA00070479EEA445F07D011EA5E0FBDE81040EE
:104CB00004BF002100207047BDE8104070B5FFF729
:104CC000D9FD00BF40DFF63E83F00041104670473B
:104CD0000000E0FF43004FEAD30C4FEA3C0C434096
:104CE0001FBF40070CF1605113F0FE4F70471CF0DE
:104CF000006F03D100200CF0004170470CF000431E
:104D000043EA507010B540EACC0000F02CFA00BF26
:104D1000000000924FEA0001FFF7FABD4FF000419A
:104D20004FF00000A1F500217047000090EA010F4C
:104D300048BF81F0004100F19A82421A3CBF801ABC
:104D400089184FEAD0524FF07F4C1CEA410FA2EB7A
:104D5000D15318BF9CEA026F00F03B804FF0004C2B
:104D60004CEA00204CEA012121FA03FC10EB0C0C68
:104D70001ED202F1FF325FEA1C2040EBC25038BF66
:104D800070471CF07F0F4FEA400C18BFBCF17F4FFB
:104D900038BF7047C3F12003994008BF20F00100DD
:104DA000BCF17F4F38BF7047A0F1C04000F021BA7E
:104DB0004FEA3C00000A40EBC25028BF1CF0FF0F36
:104DC0004FEA400CE6D018BFBCF17F4F38BF7047A8
:104DD000EAE79CEA026F05D010EA5C0F08BF00F01A
:104DE0000040704710B500F0BEF900BF64FBBE3E46
:104DF000401058BFC0F14040491058BFC1F1404178
:104E00008142EFF3008070474FF47F0C1CEAD01210
:104E10001EBF1CEAD11392EA0C0F93EA0C0F00F0AC
:104E2000858090EA010F48BF42F4807240F4000C84
:104E300041F400002CF07F4120F07F4000B581421A
:104E4000A2EB03020FF2081CACEB504EC0F10000C5
:104E50009EF800E04FEA4E0E00FB0EFC38BF490002
:104E60004FEA2C1C02F5FA020CFB0EF34FEACE1EA1
:104E70004FEA112C4FEAC1210EEB635E42EB224256
:104E80000EFB0CFC4FEA1C5300FB03114FEA112CE4
:104E90004FEA01310EFB0CFC4FEADC4C00FB0C111D
:104EA000C14228BF09184CEB03335DF804EB10EB4B
:104EB000410143EBC250B2F57C0F38BF704729D592
:104EC00012F0F00F1CBF00F1C04000F0004070472E
:104ED000008182838485868788898B8C8D8E8F91D3
:104EE0009293959697999A9C9D9FA0A2A3A5A7A8F7
:104EF000AAACAEB0B2B3B5B7B9BCBEC0C2C5C7C923
:104F0000CCCED1D4D7D9DCDFE2E6E9ECF0F3F7FA86
:104F1000FE0000004FEA400C0CF1807CBCF17E4F9B
:104F200028BF7047B0F1C04000F063B990EA010FAC
:104F30000CEAD11348BF42F48072624538BF634522
:104F400007D213F47F0F16D080EA010000F0004072
:104F5000704710B500F007F9097EFC3E00F005B877
:104F600080EA010000F00040704780EA010000F094
:104F7000004000F03EB912F47F0F04BF02487047B2
:104F800080EA010000F035B90000C07FC10DD1F109
:104F90009E0206DB4FEA002343F0004323FA02F0AF
:104FA0007047004207D54FEA4001B1F1FE4F02D2EF
:104FB0004FF00000704710B500F0D5F849922480FA
:104FC000002070476FEA20007047000010F0004199
:104FD00048BF4042B0FA80F310FA03F2C3F19D03D8
:104FE0000BD051EAC35101EB1220530638BF704772
:104FF00000F1010008BF20F00100704750EA010CE9
:1050000000F113801CF5000F58BFBCF5000F01D450
:105010008842704707D710F5000F58BF11F5000FF1
:1050200015D488427047894270471CF5000F04D59B
:10503000BCF5000FF7D5814270474FF0807C1CEB28
:10504000400F38BF1CEB410F01D28142704710B5B1
:1050500000F089F8922449004FF000504FF0805141
:10506000FFF7C6BE4FF47F0C1CEAD0121EBF1CEA2D
:10507000D11392EA0C0F93EA0C0F00F0478090EAEC
:10508000010F48BF42F480724FF0004C4CEA002000
:105090004CEA012102EB0302A0FB0113A2F500027E
:1050A000002918BF43F001035B0028BF4FEA330318
:1050B00042EB22425FEA132C4CEBC2502EBFBCEBFA
:1050C000436FB2F57C0F70474FEA036CBCF1004FA1
:1050D00008BF20F00100B2F57C0F38BF70470BD538
:1050E00082F0FF0212F5803FC8BF704700F1C04058
:1050F000D8BF00F00040704700F5000C5FEA4C0C90
:1051000048BF7047B0F1C04000F073B890EA010F9B
:105110000CEAD11348BF42F48072624538BF634540
:1051200004D280EA010000F00040704710B500F0A2
:105130001AF800BF8900013E00F007B800F009B876
:105140005FEA410C5FEA1C6C08D080EA010000F0C5
:1051500050B85FEA400C5FEA1C6CF6D14FF000409B
:10516000A0F5800070470EF1020E2EF0030E5EF8DF
:10517000044B244204D44FEA4102B2F17F4F11D8CC
:105180004FEA4003B3F17F4F0CD80ED14FEAD07CE9
:10519000B2F17F4F0CEB4C0C0CF1020C08BF4CEB46
:1051A000D17C04E04FF0080C01E04FEAD17C0CEB1D
:1051B0004C0324FA03F404F00704B4F1040C06D2FF
:1051C0000EEB840CBDE810404CF0010C6047DFE8AA
:1051D0000CF0070802024FF00040A0F5800010BD5F
:1051E0000846420018BFD2F1807288BF00F000402C
:1051F00010BDFF2141EAD050C005704751EA000CB4
:1052000000F113801CF5000F58BFBCF5000F01D44E
:105210008142704707D711F5000F58BF10F5000FF6
:1052200015D481427047894270471CF5000F04D5A0
:10523000BCF5000FF7D5884270474FF0807C1CEB1F
:10524000410F38BF1CEB400F01D28842704780EA03
:10525000010081EA000180EA0100FFF7F8BE0000CA
:1052600090EA010F48BF81F000413FF566AD421A58
:1052700004D882F00042A0EB020011444FEAD05261
:105280004FF07F4C1CEA410FA2EBD15318BF9CEAB0
:10529000026F4AD04FF0004C4CEA00204CEA01214A
:1052A00021FA03FCB0EB0C0C0FD412F0FE0F36D039
:1052B0005FEA4C001DD5001240EBC25038BF70476A
:1052C0001CF03F0F18BF70470BE0A2F101025FEA2C
:1052D0001C2040EBC25038BF70471CF07F0F18BF36
:1052E0007047C3F12003994014BF401E20F0010015
:1052F000704780084FEA122308BF7047B0FA80FC5D
:10530000A2EB0C02CCF1280C60FA0CF093EA122FFD
:1053100004BF00EBC25070474FEAC3707047130AD6
:105320005FEADC1008BF7047F6E79CEA026F04D022
:1053300010EA5C0F08BF0020704710B5FFF713FF9D
:1053400040DFF63E81F000407047FBF756BCFBF7AC
:105350008BBD0CF00F03092B08BF082000F059800B
:105360000A2B0BD0082B18BF704708BF1CF0400F4A
:105370000AD04FF000004FF0000170471CF0400FC2
:1053800018BF4FF0004070471CF0100F08D020F0FD
:10539000704300F07F4242EAD3014FEA4370704706
:1053A00000F0604021F07F4242EA000201F07F40BD
:1053B00040EA727070474FF0FF0C4CF4E06C1CEA4E
:1053C00011531CBF9CEA030C9445C2BFDA4201EBA7
:1053D00002517047002B0DD0BCF1000F0FD0002AF6
:1053E00001F00041A4BF41F0E04141F07F614FF086
:1053F0000000704701F000414FF00000704750EA94
:1054000001334FF09B0C18BF4CF0806C7FF410A858
:1054100070471CF4801F11D01CF4E02F03D06FEAFA
:10542000CC31490070474FF04050EFF3008222F03A
:10543000704242EA000282F3008870474FF0000099
:1054400070470000000000000000000000000000A5
:105450000000000000F800000000000000333000F1
:10546000000000100C06100C0600000000000000F8
:10547000000040C07840C0784000043F04043F046E
:105480000400007088FC08300000001820FF211E76
:105490000000F008F000E018000000211C031E21AD
:1054A0001E0000F00888700000001E212324192728
:1054B000211010160E000000000000000000000087
:1054C0000000000000E0180402000000000718209F
:1054D000400000020418E00000000040201807000F
:1054E0000000404080F0804040000202010F0102B5
:1054F0000200000000F0000000000101011F010196
:105500000100000000000000000080B070000000FA
:105510000000000000000000000000010101010186
:105520000101000000000000000000303000000019
:1055300000000000000080601804006018060100F0
:10554000000000E010080810E000000F10202010FC
:105550000F00001010F8000000000020203F202065
:1055600000000070080808887000003028242221FC
:1055700030000030088888483000001820202011B2
:105580000E000000C02010F8000000070424243F93
:10559000240000F80888880808000019212020113C
:1055A0000E0000E0108888180000000F1120201164
:1055B0000E0000380808C83808000000003F00004E
:1055C00000000070880808887000001C2221212239
:1055D0001C0000E010080810E00000003122221139
:1055E0000F00000000C0C0000000000000303000CC
:1055F000000000000080000000000000806000004B
:105600000000000080402010080000010204081083
:105610002000404040404040400004040404040492
:105620000400000810204080000000201008040240
:105630000100007048080808F00000000030360142
:105640000000C030C828E810E00007182724231401
:105650000B000000C038E0000000203C23020227BD
:10566000382008F8888888700000203F202020110A
:105670000E00C03008080808380007182020201045
:10568000080008F808080810E000203F202020103B
:105690000F0008F88888E8081000203F2020232009
:1056A000180008F88888E8081000203F2000030050
:1056B0000000C03008080838000007182020221E0B
:1056C000020008F808000008F808203F2101012125
:1056D0003F20000808F8080800000020203F202094
:1056E000000000000808F8080800C08080807F00E3
:1056F000000008F888C028180800203F200126383C
:10570000200008F8080000000000203F2020202092
:10571000300008F8F800F8F80800203F003F003F8C
:10572000200008F830C00008F808203F20000718C3
:105730003F00E01008080810E0000F1020202010A3
:105740000F0008F808080808F000203F21010101B7
:105750000000E01008080810E0000F18242438505A
:105760004F0008F8888888887000203F2000030CCC
:1057700030200070880808083800003820212122D5
:105780001C00180808F8080818000000203F200036
:10579000000008F808000008F808001F202020205A
:1057A0001F000878880000C83808000007380E017C
:1057B0000000F80800F80008F800033C0700073C68
:1057C0000300081868808068180820302C03032C18
:1057D00030200838C800C83808000000203F2000EA
:1057E000000010080808C8380800203826212020AA
:1057F0001800000000FE020202000000007F40408E
:105800004000000C30C0000000000000000106381D
:10581000C00000020202FE000000004040407F0085
:10582000000000000402020204000000000000006A
:105830000000000000000000000080808080808068
:105840008080000202040000000000000000000050
:1058500000000000808080800000001924222222A5
:105860003F2008F8008080000000003F1120201138
:105870000E000000008080800000000E112020201B
:105880001100000000808088F800000E1120201018
:105890003F200000808080800000001F2222222202
:1058A0001300008080F0888888180020203F202086
:1058B00000000000808080808000006B94949493AE
:1058C000600008F8008080800000203F2100002058
:1058D0003F2000809898000000000020203F2020FA
:1058E0000000000000809898000000C08080807F49
:1058F000000008F8000080808000203F24022D3046
:105900002000000808F8000000000020203F2020B0
:1059100000008080808080808000203F20003F2029
:10592000003F8080008080800000203F2100002018
:105930003F200000808080800000001F2020202069
:105940001F00808000808000000080FFA1202011C7
:105950000E000000008080808000000E112020A03A
:10596000FF80808080008080800020203F212000F8
:1059700001000000808080808000003324242424E3
:105980001900008080E0808000000000001F2020BF
:1059900000008080000000808000001F2020201078
:1059A0003F20808080000080808000010E3008064B
:1059B000010080800080008080800F300C030C305C
:1059C0000F0000808000808080000020312E0E318A
:1059D0002000808080000080808080818E7018068A
:1059E000010000808080808080000021302C2221F6
:1059F000300000000000807C020200000000003F38
:105A0000404000000000FF00000000000000FF0018
:105A100000000002027C800000000040403F0000C7
:105A20000000000601010202040400000000000062
:105A30000000000000000000555555555555C53F64
:105A40007D6FEB0312D6D4BF5544880E55C1C93FB4
:105A50003B8F68B52882A4BF88B20175E0EF493F4B
:105A600009F7FD0DE13D023F4B2D8A1C273A03C08B
:105A7000C88A599CE52A004059018D1B6C06E6BF77
:105A800082922EB1C5B8B33F0000000000000000B4
:105A90003031323334353637383941424344454664
:105AA000403058003031323334353637383961625E
:105AB0006364656640307800040000080000000060
:105AC00000000002000100001000000000000000C3
:105AD0004FBB610567ACDD3F182D4454FB21E93F06
